{
  "_format": "hh-sol-artifact-1",
  "contractName": "ImperrioPresale",
  "sourceName": "contracts/ImperrioClaim.sol",
  "abi": [
    {
      "inputs": [],
      "stateMutability": "nonpayable",
      "type": "constructor"
    },
    {
      "inputs": [],
      "name": "addCoins",
      "outputs": [],
      "stateMutability": "payable",
      "type": "function"
    },
    {
      "inputs": [],
      "name": "claim",
      "outputs": [],
      "stateMutability": "nonpayable",
      "type": "function"
    },
    {
      "inputs": [],
      "name": "getBalance",
      "outputs": [
        {
          "internalType": "uint256",
          "name": "",
          "type": "uint256"
        }
      ],
      "stateMutability": "view",
      "type": "function"
    },
    {
      "inputs": [],
      "name": "owner",
      "outputs": [
        {
          "internalType": "address",
          "name": "",
          "type": "address"
        }
      ],
      "stateMutability": "view",
      "type": "function"
    }
  ],
  "bytecode": "0x608060405234801561001057600080fd5b50336000806101000a81548173ffffffffffffffffffffffffffffffffffffffff021916908373ffffffffffffffffffffffffffffffffffffffff1602179055506102c6806100606000396000f3fe60806040526004361061003f5760003560e01c806312065fe0146100445780634e71d92d1461006f5780638da5cb5b1461008657806393b1fb12146100b1575b600080fd5b34801561005057600080fd5b506100596100bb565b60405161006691906101ff565b60405180910390f35b34801561007b57600080fd5b506100846100c3565b005b34801561009257600080fd5b5061009b61015d565b6040516100a891906101c4565b60405180910390f35b6100b9610181565b005b600047905090565b600067016345785d8a0000905080471015610113576040517f08c379a000000000000000000000000000000000000000000000000000000000815260040161010a906101df565b60405180910390fd5b3373ffffffffffffffffffffffffffffffffffffffff166108fc829081150290604051600060405180830381858888f19350505050158015610159573d6000803e3d6000fd5b5050565b60008054906101000a900473ffffffffffffffffffffffffffffffffffffffff1681565b565b61018c8161022b565b82525050565b600061019f601d8361021a565b91506101aa82610267565b602082019050919050565b6101be8161025d565b82525050565b60006020820190506101d96000830184610183565b92915050565b600060208201905081810360008301526101f881610192565b9050919050565b600060208201905061021460008301846101b5565b92915050565b600082825260208201905092915050565b60006102368261023d565b9050919050565b600073ffffffffffffffffffffffffffffffffffffffff82169050919050565b6000819050919050565b7f496e73756666696369656e7420436f6e74726163742042616c616e636500000060008201525056fea2646970667358221220b25e045e625eb714a69ebe76c6526fe9cd6fc9ef23a7b23de51d5f29da9ffa9e64736f6c63430008070033",
  "linkReferences": {},
  "deployedLinkReferences": {}
}